:020000040800F2
:1000000020110020D1010008E33B0008D330000894
:10001000E13B0008B9090008CD49000800000000D4
:100020000000000000000000000000000143000884
:100030000D0D000800000000CB420008214400081C
:10004000EB010008EB010008EB010008EB010008E0
:10005000EB010008EB010008EB010008EB010008D0
:10006000EB010008EB010008EB010008EB010008C0
:10007000EB010008EB010008EB010008EB010008B0
:10008000EB010008EB010008EB010008EB010008A0
:10009000EB010008EB010008EB010008EB01000890
:1000A000EB010008EB010008EB010008EB01000880
:1000B000EB010008A1440008EB010008EB01000877
:1000C000EB010008EB010008EB010008EB01000860
:1000D000EB010008EB010008EB010008C149000832
:1000E000110D0008EB010008EB01000800F002F818
:1000F00000F05FF80AA090E8000C82448344AAF163
:100100000107DA4501D100F054F8AFF2090EBAE860
:100110000F0013F0010F18BFFB1A43F0010318473B
:10012000A8AF0000C8AF00000A444FF0000C10F860
:10013000013B13F0070408BF10F8014B1D1108BF65
:1001400010F8015B641E05D010F8016B641E01F805
:10015000016BF9D113F0080F1EBF10F8014BAD1C55
:100160000C1B09D16D1E58BF01F801CBFAD505E073
:1001700014F8016B01F8016B6D1EF9D59142D6D3CD
:10018000704700000023002400250026103A28BFF5
:1001900078C1FBD8520728BF30C148BF0B607047F9
:1001A000642900F06780002070471FB51FBD10B59F
:1001B00010BD00F077FA1146FFF7F7FF05F0D0FE0B
:1001C00000F095FA03B4FFF7F2FF03BC04F03CFD26
:1001D0000948804709480047FEE7FEE7FEE7FEE7DB
:1001E000FEE7FEE7FEE7FEE7FEE7FEE70448054917
:1001F000054A064B704700009D440008ED000008CA
:10020000200B002020110020200D0020200D0020B8
:10021000704710B54C1084EA530404D54042C1F134
:10022000000138BF491E1B4204D55242C3F10003EE
:1002300038BF5B1E00F003F914F0804F04D0404239
:10024000C1F1000138BF491E14F0004F04D05242E2
:10025000C3F1000338BF5B1E10BD00000FB404499A
:1002600010B503AA029800F0C5F910BC5DF814FBA4
:10027000900000202DE9F041064600241068752901
:10028000314616A510D0AFF30080002802DA4042B4
:1002900013A507E031688A0701D512A502E04907D6
:1002A00004D511A5012401E0AFF3008000210A224A
:1002B00006F1240709E0B0FBF2FCB0FBF2F302FB0D
:1002C0001C00303078541846491C0028F3D12346CE
:1002D0002A463046BDE8F04100F033B90000000086
:1002E0002D0000002B000000200000002DE9F0414F
:1002F0000F4604460020DFF88480F8442062204640
:10030000E168884790B3252806D0D4E901219047B9
:10031000206A401C2062F2E700252046E1688847F9
:100320002028064608DB312E06D208EB060010F81E
:10033000200C08B10543F0E7A80701D525F0040516
:10034000A6B1A6F14100192802D8203645F400656F
:100350003A46314620462560FFF722FF48B1012882
:1003600005D0FF1D27F007070837C8E703E03F1D4A
:10037000C5E73046C9E7206ABDE8F08140AC00001F
:1003800040EA010310B59B070FD1042A0DD310C812
:1003900008C9121F9C42F8D020BA19BA884201D964
:1003A000012010BD4FF0FF3010BD1AB1D30703D0AC
:1003B000521C07E0002010BD10F8013B11F8014B62
:1003C0001B1B07D110F8013B11F8014B1B1B01D17E
:1003D000921EF1D1184610BD02F0FF0343EA03223A
:1003E00042EA024200F01AB94FF0000200B513468B
:1003F00094469646203922BFA0E80C50A0E80C5045
:10040000B1F12001BFF4F7AF090728BFA0E80C50F5
:1004100048BF0CC05DF804EB890028BF40F8042BEE
:1004200008BF704748BF20F8022B11F0804F18BF5B
:1004300000F8012B7047704770477047704753EAC8
:10044000020C00F069802DE9F04B4FF00006002B04
:100450001FBFB3FA83F503FA05F424FA05F65E40EC
:1004600012BF1643B2FA82F502FA05F4C5F120056F
:100470001EBF22FA05FC44EA0C04203556EA044C5F
:100480004FEA144418BF641C4FF000084FF00009F5
:10049000904271EB030C39D3002919BFB1FA81F7EF
:1004A00001FA07F6B0FA80F700FA07F6C7F120075D
:1004B0001EBF20FA07FC46EA0C062037B6FBF4FC08
:1004C000A7EB0507103F07F01F0BCBF120060CFA36
:1004D0000BFB2CFA06F644BFB3460026202FA4BF20
:1004E0005E464FF0000B5BEA060C08BF4FF0010BB5
:1004F00019EB0B09ABFB027C48EB0608C01B06FBA3
:1005000002CC0BFB03CC71EB0C01C1E70B4602469E
:1005100041464846BDE8F08B13B54FF000004FF060
:100520000001AFF30080BDE81C40704710B500F03B
:1005300095F8006810BD10B5044600F08FF804600F
:1005400010BD2DE9F0470D4699469246044600F14C
:1005500024080168880604D5E06921F010012160B3
:1005600000E00120A84201DD471B00E00027A1694F
:100570007A1902EB0900081AA0612078C00602D49B
:100580002046AFF30080002608E0D4E901211AF8E4
:1005900006009047206A401C761C20624E45F4DB22
:1005A0002078C0060AD52046AFF3008006E0D4E9E3
:1005B000012130209047206A401C2062381EA7F19C
:1005C0000107F4DC07E0D4E9012118F805009047A1
:1005D000206A401C2062281EA5F10105F3DC20469C
:1005E000AFF300802078000602D50220BDE8F08736
:1005F0000120FBE7074B70B50D467B4400F037F850
:100600000446284600F046F810B14FF0FF3070BDA8
:10061000204670BD8F5300004FF000020429C0F047
:10062000128010F0030C3FF4E1AECCF1040CBCF1ED
:10063000020F18BF00F8012BA8BF20F8022BA1EB76
:100640000C01FFF7D3BE5FEAC17C24BF00F8012B89
:1006500000F8012B48BF00F8012B70470048704795
:10066000BC0A002001694A1C02610878704700B585
:100670008FB0CDE901310021059105497944CDE9DB
:10068000031011466846FFF731FE0FB000BD0000B1
:10069000E5FFFFFF007B00F08000704700487047D7
:1006A000BC0A00207546FFF7F9FFAE460500694613
:1006B000534620F00700854618B020B5FFF796FD99
:1006C000BDE820404FF000064FF000074FF0000853
:1006D0004FF0000B21F00701AC46ACE8C009ACE8D4
:1006E000C009ACE8C009ACE8C0098D46704710B538
:1006F0000446AFF300802046BDE81040FFF762BD1E
:1007000070B5044600688168C943C90717D181687C
:1007100021F00101816001F065FA05460AE000BFA1
:1007200001F060FA401B022804D920688068C043A9
:10073000C00706D020688068C043C007F0D0002002
:1007400070BDA06A40F01000A062E06A40F00100B5
:10075000E062012070BD0000F8B500260446009656
:1007600000688168C943C9072DD0816841F0010143
:100770008160164816490068B0FBF1F000E0401EA9
:1007800000900028FBD101F02DFA054616E000BFCD
:1007900001F028FA401B022810D920688068C04365
:1007A000C0070BD0A06A40F01000A062E06A40F0E1
:1007B0000100E06284F824600120F8BD20688068B0
:1007C000C043C007E4D10020F8BD00005004002061
:1007D00040420F002DE9F0474448032186B00068ED
:1007E0004000A0F6AC0090FBF1F5002D01DA0025E9
:1007F00002E0642D00DD64253D48006807F060FDDF
:100800003C4C3D4F22463B4607F04AFA07F0B2F90E
:10081000060000D546423948006807F051FD2246DF
:100820003B4607F03DFA07F0A5F9040000D5444225
:1008300033490878F0B10020324F08703978012927
:100840001AD0002846D03048006807F08FFE0546D1
:100850002E48006807F08AFE04462D48006807F01D
:1008600085FE06B02B462246BDE8F047014629A08A
:10087000FFF7F4BC0120DFE72A48006807F076FEA6
:1008800081462948006807F071FE824627480068C3
:1008900007F06CFE80462648006807F067FE0646B3
:1008A0002448006807F062FE05462348006807F008
:1008B0005DFE00240594CDE90294CDE9008A01464D
:1008C000049433462A461DA0FFF7C8FC3C7006B0CE
:1008D000BDE8F0872148006807F048FE00902B46ED
:1008E000324621461EA0FFF7B9FCF0E73800002091
:1008F000300000209A9999999999F13F2C00002095
:10090000940000204800002034040020200400202F
:100910001C0400207B4225643A25643A25647D242A
:10092000000000001C00002018000020140000201F
:10093000100000200C000020080000207B432564EC
:100940003A25643A25643A25643A25643A25643A9E
:1009500025643A25643A25647D24000020000020A7
:100960007B4125643A25643A25643A25647D240058
:1009700070B580F0004581F000400B49096807F030
:100980005DFE0A4907F030FD04460A480849006840
:1009900007F02AFD294607F051FE214607F024FF03
:1009A000BDE8704007F0E2BD0C0000200000C84226
:1009B0000000C8C208000020FEE70000F8B5374F6D
:1009C000002601200096387002466B46752168208B
:1009D00005F040FA32A0FFF741FC9DF800006828BE
:1009E0000CD0BFF34F8F37480168374A01F4E061FC
:1009F00011430160BFF34F8F00BFFDE705F0B4FB6B
:100A0000002848D1782006F025F810B924A0FFF777
:100A100025FC782005F0DAFA10B92CA0FFF71EFCAF
:100A2000C82005F0D7FF10B932A0FFF717FC04F07B
:100A3000FBFC10B939A0FFF711FC4548044605F04E
:100A40006BFA0546E01C05F067FA45EAC005A01DF3
:100A500005F062FA45EA801080B204F0F3FD10B9A7
:100A60003CA0FFF7FBFB40F2731004F0B5FB10B99C
:100A700042A0FFF7F3FBC82004F04CFD10B949A0D9
:100A8000FFF7ECFB06F064FD012005F0C9FE10B98C
:100A90004DA0FFF7E3FB3E70F8BD00000100002011
:100AA0006D70755F7365745F73656E736F722063CD
:100AB0006F6D706C657465202E2E2E2E2E2E0D0AF5
:100AC000000000000CED00E00400FA056D70755F99
:100AD000636F6E6669677572655F6669666F2063CE
:100AE0006F6D706C657465202E2E2E2E2E2E0D0AC5
:100AF000000000006D70755F7365745F73616D70E9
:100B00006C655F7261746520636F6D706C65746590
:100B1000202E2E2E2E2E2E0D0A000000646D705FEA
:100B20006C6F61645F6D6F74696F6E5F647269761C
:100B300065725F6669726D7761726520636F6D7053
:100B40006C657465202E2E2E2E2E2E0D0A000000B0
:100B500028040020646D705F7365745F6F7269654F
:100B60006E746174696F6E20636F6D706C6574650F
:100B7000202E2E2E2E2E2E0D0A000000646D705F8A
:100B8000656E61626C655F66656174757265206330
:100B90006F6D706C657465202E2E2E2E2E2E0D0A14
:100BA00000000000646D705F7365745F6669666F56
:100BB0005F7261746520636F6D706C657465202E63
:100BC0002E2E2E2E2E0D0A006D70755F7365745FCC
:100BD000646D705F737461746520636F6D706C65B4
:100BE0007465202E2E2E2E2E2E0D0A0030B50E48A6
:100BF0000121006800F060F80C480221006800F054
:100C00005BF8022000F018F8094A0021094C131D76
:100C100006E015686D06FCD5655C1D60491CC9B20F
:100C20008142F6D330BD00002000002024040020C3
:100C300000380140100500200A2839D890B31D491A
:100C400024220B280A7033D2DFE800F032060A0EA5
:100C500012161A1E22272D00052048710620704703
:100C6000092048720A2070470D2048730E207047F3
:100C700011204874122070471520487516207047BF
:100C8000192048761A2070471D2048771E2070478B
:100C9000212081F8210022207047252081F825009D
:100CA0002620704704E0292081F829002A20F8E74F
:100CB0000020F6E71005002003B50A2912D8002904
:100CC00010D00B290ED2DFE801F00D06080E10122D
:100CD0001416181A1C00012200E005220A49684671
:100CE00000F034F80CBD0922F8E70D22F6E71122D6
:100CF000F4E71522F2E71922F0E71D22EEE72122A0
:100D0000ECE72522EAE7000010050020704700000C
:100D10000A48D0F8300168B9094A1078012809D189
:100D200008480178491C017001780A2902D1002184
:100D3000017011704FF4805000F052BE000021424B
:100D4000020000200300002072B6FEE703788B54F7
:100D5000114443784B7082788A70C078C8707047AD
:100D60002DE9F0431D46144688460646C2F1800729
:100D7000DDF81C9015E0102C18D0182C1DD0202C5C
:100D800012D14B462A464146304600F0B5F830199C
:100D9000C6B2B74204DA08EB0400002600F0FF08F0
:100DA000AD1C28780028E6D1BDE8F0834B462A46E2
:100DB0004146304600F008F8E9E74B462A464146EE
:100DC000304600F04BF8E2E72DE9FF4F022514789A
:100DD00021499B46002000BF00EB001311F813606F
:100DE000A64233D101EB430A56789AF80130B34258
:100DF0002CD100244FF080090AEB0400BBF1000F56
:100E0000807801D1C043C0B280460198009900EBC0
:100E1000540704F00100002501EBC00629FA05F093
:100E200010EA080F06EB0500F9B2C0B201D00122AA
:100E300000E0002202F044FF6D1CEDB2082DEDD35E
:100E4000641CE4B2202CD7D3BDE8FF8F401CC0B295
:100E5000A842C1D3F8E7000016AE00082DE9FF4F05
:100E60008A468346012413782249002000EB80053E
:100E700005EB401511F815609E4236D101EB45098E
:100E8000567899F80150B5422FD1002480264FF0B2
:100E900003080398002809EB040001D0877802E0DA
:100EA0008078C043C7B2002526FA05F03842404694
:100EB000B4FBF0F202EB0A01B4FBF8F208FB1242B9
:100EC0000BEBC2002844C9B2C0B201D0012200E03D
:100ED000002202F0F5FE6D1CEDB2082DE4D3641C77
:100EE000E4B2482CD5D3BDE8FF8F401CC0B2A0426D
:100EF000BCD3F8E75AAE00082DE9FF4F012514785E
:100F000021499B46002000BF00EB801311F81360BD
:100F1000A64233D101EB430A56789AF80130B34226
:100F20002CD100244FF080090AEB0400BBF1000F24
:100F3000807801D1C043C0B280460198009900EB8F
:100F4000940704F00300002501EBC00629FA05F020
:100F500010EA080F06EB0500F9B2C0B201D0012279
:100F600000E0002202F0ACFE6D1CEDB2082DEDD3C6
:100F7000641CE4B2802CD7D3BDE8FF8F401CC0B204
:100F8000A842C1D3F8E70000A4AE00082DE9F84F4D
:100F90004421D02002F09EF804464321D02002F0E4
:100FA00099F804EB002007F035FB07464621D020D6
:100FB00002F090F804464521D02002F08BF804EBB3
:100FC000002007F027FB00904821D02002F082F893
:100FD00004464721D02002F07DF804EB002007F002
:100FE00019FB06463C21D02002F074F804463B2150
:100FF000D02002F06FF804EB002007F00BFB8346D3
:101000003E21D02002F066F804463D21D02002F0B7
:1010100061F804EB002007F0FDFA82464021D02061
:1010200002F058F804463F21D02002F053F804EBB8
:10103000002007F0EFFA4FF08E4405464FF08F483E
:10104000A74204DD4146384607F0CEFB074600982C
:10105000A04203DD414607F0C7FB0090A64204DD35
:101060004146304607F0C0FB06465846A34503DD1F
:10107000414607F0B9FB83465046A24503DD414691
:1010800007F0B2FB8246A54204DD4146284607F040
:10109000ABFB0546314987F000400860284607F061
:1010A0000FF981464C468846504607F009F922461A
:1010B000434603F01BFF0022294B06F0F1FDDFF849
:1010C000A4A0294B524606F0C1FB06F0D1FA274CEA
:1010D0004146C846A0608946584607F0F1F84246A6
:1010E0004B4603F003FF00221D4B06F0D9FD52468C
:1010F0001D4B06F0ABFB06F0BBFA8146384607F005
:10110000DFF8DFF86CA04FF066373A46534606F03A
:101110009DFB06F0ADFA8046009807F0D1F83A46FC
:10112000534606F093FB06F0A3FA07464146A06833
:1011300002F07CF980F0004020603946484602F019
:1011400023FA80F000400B496060206808600A487C
:1011500006600A480560BDE8F88F00002400002002
:1011600000806640F1D4C853FB2109401C040020D4
:101170006666304020000020280000203400002057
:101180002DE9F05F8B4606F024FD274C0022234614
:1011900006F086FD6FF001052A4607F0CCFB234ED2
:1011A0000022334606F052FB214F00223B4606F058
:1011B0004DFB06F05DFA07F083F8DFF87880DFF882
:1011C00078A04246534606F06BFDDFF8709000228F
:1011D0004B4606F065FD06F04BFA19490860584683
:1011E00006F0F7FC0022234606F05AFD2A4607F0D7
:1011F000A2FB0022334606F029FB00223B4606F004
:1012000025FB06F035FA07F05BF84246534606F038
:1012100047FD00224B4606F043FD06F029FA094936
:101220000860BDE8F09F00000000694000003E40FB
:1012300000002A40F1D4C853FB21094000C05040AF
:101240002C0000203000002010B5114800F06EFA8C
:101250000A210F4800F0CCF90D4800F00BF980B2DC
:1012600006F0CEFC4FF066320A4B06F019FD002264
:10127000094B06F015FD0022084B06F011FD6FF03A
:101280000B0207F058FBBDE8104006F073BC0000ED
:101290005C05002066660A400000264000005940B8
:1012A000F8B500250446009590F82400012808D0E0
:1012B000012084F824002046FFF722FA060002D01D
:1012C00053E00220F8BDA06A20F4885040F00200EC
:1012D000A062022000F038FD26490968B1FBF0F059
:1012E000400000E0401E00900028FBD12046FFF7A0
:1012F00033FA2068816841F00801816000F072FCD7
:10130000074608E000F06EFCC01B0A2803D92068DD
:101310008068000715D4206880680007F2D4206830
:10132000816841F00401816000F05CFC074612E036
:1013300000F058FCC01B0A280DD9206880684007BF
:1013400009D5A06A20F0020040F01000A06284F8E5
:1013500024500120F8BD206880684007E8D4A06AC6
:1013600020F0020040F00100A06284F824503046D2
:10137000F8BD000050040020F8B50024009490F857
:1013800024202546012A12D0012280F824204A6810
:101390001F23072A0DD20668776B521E02EB8202CA
:1013A00093409F430B6893401F43776319E00220EB
:1013B000F8BD06680D2A0AD2376BD21F02EB8202F3
:1013C00093409F430B6893401F43376309E0F76ADC
:1013D0000D3A02EB820293409F430B6893401F43F8
:1013E000F7620A68072306680A2A0AD3F7680A3AE6
:1013F00002EB420293409F438B6893401F43F76088
:1014000008E0376902EB420293409F438B689340A8
:101410001F4337610A68102A01D0112A20D1124BCC
:1014200002689A4217D193681B0219D4936843F457
:10143000000393600968102912D10C490C4A09680D
:10144000B1FBF2F101EB8101490000E0491E00917E
:101450000029FBD104E0816A41F02001816201246E
:1014600080F824502046F8BD00240140500400209C
:1014700040420F000068C06C704700002DE9F04149
:101480004FF0000704003D467ED0A06A002628B930
:10149000E66284F82460204600F07EF82046FFF7DC
:1014A0002FF9A16AC90600D420B1A06A40F010004B
:1014B000A06269E0A16A21F4885141F00201A162B1
:1014C0006268E169237B0A4347EA43010A43A16852
:1014D0004FF48077B94209D0012907D05FF00001AD
:1014E00094F814C0BCF1010F02D00AE03946F7E7C6
:1014F000F3B1A36A43F02003A362E36A43F001035C
:10150000E3622368D3F804C02CF4694C4CEA010C64
:10151000C3F804C021688B68DFF870C003EA0C03CD
:1015200013438B60A168B9420BD0012909D00CE0AC
:10153000DFF85CC0A3690CEB43330B4343F4006159
:10154000DFE7218A0D05A5F580152168CB6A23F414
:1015500070032B43CB62216889680E4B194091427E
:1015600008D1E662A16A21F0020141F00101A16205
:10157000BDE8F081A06A20F0020040F01000A062F7
:10158000E06A40F00100E0620120F1E7FDF7E1FFD1
:1015900000E0FFFFFE0E1FFF00B585B000210091A7
:1015A00001910291039100680E49884218D10E48BA
:1015B000816941F400718161816901F400710491D4
:1015C000816941F0040181618069694600F004008D
:1015D00004904020009003200190044800F00CFA91
:1015E00005B000BD00240140001002400008014089
:1015F0002DE9F84300270D460446009700F0F2FA63
:10160000804620688168C90508D5A06A40F020009E
:10161000A06284F824700120BDE8F8834168C90500
:1016200003D4C06A10F4700F2AD0022000F08CFBA3
:101630003B490968B1FBF0F62068036939490B4260
:101640004FEA61014FEAA1121FD1C3684FEA611C42
:1016500013EA0C0F19D103690B4225D1C06810425F
:1016600022D1142023E0681C0AD02DB100F0BAFA70
:10167000A0EB0800A84203D920680068800725D5A0
:10168000206800688007EED52DE003690B4202D187
:10169000C168114206D0026923490A4206D1C068D6
:1016A000084203D1542002E0292000E0FC204643F8
:1016B000009816E0681C11D02DB100F093FAA0EB51
:1016C0000800A8420AD90098B04207D2A06A40F0A8
:1016D0000400A06284F8247003209DE70098401C59
:1016E0000090B042E6D321686FF012000860A06A53
:1016F00040F40070A06220688068C0F34240072870
:101700000CD1207B50B9A06A20F48070A062A06A3E
:10171000C00403D4A06A40F00100A06200207BE76F
:1017200050040020244992244992240070B50446B4
:1017300090F8240001280DD0012084F824002046D0
:10174000FFF70AF802004FF0000005D084F82400EB
:10175000104670BD022070BDA16A40F2012399437A
:1017600041F48071A1621F4D23681F49AB4218D11B
:101770000E6816F4702F14D0A66A46F48016A6627E
:101780000E68760505D5A66A26F4005646F48056FE
:10179000A662A66AF6040AD5E66A26F00606E6629E
:1017A00006E0A66A26F48016A6625E68E9E7E062B3
:1017B00084F824006FF00200186020688368C3F387
:1017C0004243072B05D1A84208D1096811F4702FB4
:1017D00004D0816841F480118160B9E7816841F4E7
:1017E000A001F9E7002801400424014010B590F859
:1017F00021100022022905D00421816380F82020D5
:10180000012010BD01680B6823F00E030B60016816
:101810000B6823F001030B6090F84030C46B01218A
:1018200001FA03F3636080F8211080F8202010464D
:1018300010BD000010B590F821100024022903D03B
:101840000421816301243DE001680A6822F00E0250
:101850000A6001680A6822F001020A601A4A0168F7
:10186000914201D1012121E0174A1432914201D164
:1018700010211BE0144A2832914201D1891515E04C
:10188000114A3C32914201D189140FE00E4A503284
:10189000914202D14FF4803108E00B4A6432914208
:1018A00002D14FF4801101E04FF08071064A083AEE
:1018B0005160012180F82110002180F82010416B37
:1018C00001B18847204610BD0800024070B50446AB
:1018D00000F088F90546601C02D0044800780444F2
:1018E00000F080F9401BA042FAD370BD44040020F0
:1018F0002DE9F041B0F5805F5FD1314C2078E8B33D
:1019000000202070FFF742FB022002F0DFFCC0F154
:101910000008042002F0DAFC474239464046FFF74F
:101920002FFC2078274D012831D001F0DBFE26481E
:10193000264E01683068FFF71BF8044639464046DA
:1019400003F046F807462248006802F0CBFEE21991
:10195000014650181F4C204B511A20601F4F41F672
:10196000F42819603A46414602F0A8FC20603A4645
:101970004146186802F0A2FC186000E005E0296802
:10198000306802F005FFA0B117E00120B9E7FFF7CA
:101990005BFC6060A168491CA160E2686429104496
:1019A000E0600AD190FBF1F028600020E060A060C8
:1019B00003E01968206802F0A5FC0020BDE8F08172
:1019C0004C000020380000202400002020000020CF
:1019D000280000203C000020400000200CE5FFFF14
:1019E000044910B50A68024202D00860FFF780FF80
:1019F00010BD0000140401402DE9F84FDFF8B89144
:101A0000002409F1040A0AF1040B23460F270BF105
:101A1000040EC9E00125A5402A40AA427DD1674EA7
:101A2000D1F804C0ACEB0608B44532D014DCBCF1EC
:101A3000030F3AD009DCBCF1000F2AD0BCF1010F32
:101A40001CD0BCF1020F31D11DE0BCF1110F17D039
:101A5000BCF1120F2AD119E0B8F5881F19D006DCA5
:101A6000B8F5803F15D0B8F5801F1FD111E0B8F54B
:101A7000001F0ED0B8F5041F18D10AE0CB6815E09E
:101A8000CB681B1D12E0CB6808330FE0CB680C332A
:101A90000CE08B682BB1012B4FF0080303D045619C
:101AA00004E0042302E0056100E00023FF2A01D8DE
:101AB000064601E000F104064FEA840501D9A5F1CC
:101AC0002005D6F8008007FA05FC28EA0C0803FA7E
:101AD00005F548EA0508C6F800804D68ED0062D5B6
:101AE000374DAE6946F00106AE61AD6924F00306DC
:101AF00005F001050095334D06EB050CDCF80850A8
:101B0000A607360F07FA06F825EA0805DFF8B880B9
:101B1000404503D14FF0000817E044E0DFF8AC8007
:101B2000404502D14FF001080FE0DFF8A4804045A6
:101B300002D14FF0020808E0DFF89880404502D15A
:101B40004FF0030801E04FF0040808FA06F848EAED
:101B50000508CCF808804D68D9F80060ED034D46C3
:101B600001D5164300E096432E604D68DAF8006018
:101B7000AD03554601D5164300E096432E604D68EF
:101B8000DBF80060ED025D4601D5164300E09643A8
:101B90002E604D68DEF80060AD02754601D5164333
:101BA00000E096432E60641C0D682A46E5407FF4F1
:101BB00031AFBDE8F88F00000004014000001110B3
:101BC000001002400000014000080140000C0140EC
:101BD00000100140001401400AB10161704709047E
:101BE000FBE70000014880687047000044040020C3
:101BF00002488168027811448160704744040020E3
:101C0000074810B5016841F010010160032000F0A1
:101C100089F8032000F006F800F024F8002010BD39
:101C20000020024070B50D4D04464FF47A712878BB
:101C3000B1FBF0F00A490968B1FBF0F000F0DAFB03
:101C400048B9102C07D200222146501E00F04AF855
:101C500000206C6070BD012070BD000044040020B5
:101C6000500400200E4808B5816941F001018161EE
:101C7000816901F001010091C16941F08051C161A8
:101C8000C06900F080500090052000F04BF8054836
:101C9000416821F0E06141F00071416008BD000041
:101CA000001002400000014000280DDB00F01F0280
:101CB000012191404009800000F1E020C0F880112E
:101CC000BFF34F8FBFF36F8F7047002809DB00F021
:101CD0001F02012191404009800000F1E020C0F87E
:101CE00000117047F0B40E4B1B680C46C3F302237F
:101CF000C3F10705042D00D90425191D072901D2B8
:101D0000002300E0DB1E012606FA05F1491E2140F2
:101D100099409E40761E16403143F0BC02F00CBF45
:101D20000CED00E0064900F0070208684FF6FF03DB
:101D3000184040EA0220034A104308607047000040
:101D40000CED00E00000FA0510B529A401461DCCF9
:101D500086B08DE81D002AA02A4C0068049000205F
:101D6000012923D002293AD010291DD161682268A7
:101D7000D20119D5C1F38342C9031DF8020009D568
:101D8000616804AAC1F34041515C1F4AB2FBF1F102
:101D9000484301E01D4948436168490204D44000BA
:101DA0005FF00301B0FBF1F006B010BD226AC2F390
:101DB0000121012903D1920701D5C803F4E70229C3
:101DC00005D1626A920702D549F64040ECE7032943
:101DD000EAD121688903E7D54FF22440E4E700F017
:101DE00033F96168C1F38131491C4900DAE7000029
:101DF00002030405060708090A0B0C0D0E0F10104C
:101E0000010200000010024000127A0000093D00AB
:101E10002DE9F84305460078354CC00754D0E069F9
:101E20000026C00008D4E06940F08050E061E0691D
:101E3000012600F0805000902E480168C90512D498
:101E40000168804641F480710160FFF7CBFE0746D0
:101E500005E000BFFFF7C6FEC01B642823D8D8F8F2
:101E60000000C005F6D5206A10F4407021D0A98882
:101E700001F4407181421CD0206A1F49012220F4E4
:101E800040700A6000220A602062C00711D0FFF78C
:101E9000A9FE074641F2883808E000BFFFF7A2FE1E
:101EA000C11B414502D90320BDE8F883206A8007A1
:101EB000F4D5206A696820F44070084320621EB19E
:101EC000E06920F08050E0612878800705D56068DF
:101ED000A96820F44040084360602878C00605D512
:101EE0006068E96820F48000084360600020DBE758
:101EF0000010024000700040400442422DE9F047CB
:101F00000F46050061D0434E306800F00700B8422C
:101F100009D2306820F0070038433060306800F0A4
:101F20000700B84251D128683B4C810712D54007C1
:101F300003D5606840F4E06060602878000703D54E
:101F4000606840F4605060606068A96820F0F0004C
:101F5000084360602878C00728D06868012810D03E
:101F60002168022810D0890700292EDA616821F043
:101F7000030101436160FFF735FE804641F2883975
:101F80000DE021688903EFE78901EDE7FFF72AFEFD
:101F9000A0EB0801494502D90320BDE8F08760683D
:101FA000696800F00C00B0EB810FEFD1306800F0F1
:101FB0000700B8420BD9306820F007003843306082
:101FC000306800F00700B84201D00120E5E728782A
:101FD000400705D56068E96820F4E0600843606068
:101FE0002878000706D56068296920F4605040EA27
:101FF000C100606000F038F86168084AC1F303115D
:10200000515CC8400649086006480068FFF70AFEB0
:102010000020C2E7002002400010024026AF000866
:10202000500400204804002004480549006849681D
:10203000044AC1F30221515CC8407047500400209B
:102040000010024036AF000804480549006849689E
:10205000044AC1F3C221515CC840704750040020BB
:102060000010024036AF000812A185B00FC98DE8FC
:102070000F0014A0144A006804905168134801F03E
:102080000C03042B10D0082B0ED1C1F38343C903DA
:102090001DF803000AD5516804AAC1F34041515C00
:1020A0000A4A5043B0FBF1F005B070470849484375
:1020B000FAE7000002030405060708090A0B0C0DE5
:1020C0000E0F1010010200000010024000127A00F2
:1020D00000093D002DE9F84F040070D02078C04D74
:1020E000C00749D06868C0F38100012807D068683C
:1020F000C0F38100022809D16868C00306D52868AA
:10210000800339D560680028E7D035E06068B0F515
:10211000803F0BD010B1B0F5A02F11D0286820F46B
:1021200080302860286820F4802002E0286840F48D
:1021300080302860606890B1FFF754FD06460AE0E1
:10214000286840F480202860F0E700BFFFF74AFDD0
:10215000801B642873D828688003F7D50CE0FFF74C
:1021600041FD064605E000BFFFF73CFD801B6428EB
:10217000F0D828688003F7D420789A4E80074FF073
:1021800001094FF0000839D5686810F00C0F07D02E
:102190006868C0F38100022809D16868C00306D4CA
:1021A0002868800714D52069012808D110E020692B
:1021B000B0B1C6F80090FFF715FD074605E00AE14B
:1021C000FFF710FDC01B0228C4D828688007F7D588
:1021D0002868616920F0F80040EAC10028600DE03D
:1021E000C6F80080FFF7FEFC074604E0FFF7FAFCA4
:1021F000C01B022823D828688007F7D4207800075E
:102200002CD57948A169D9B1C0F80090FFF7EAFC54
:10221000074604E0FFF7E6FCC01B02280FD8686AF7
:102220008007F7D571484FF4FA510068B0FBF1F020
:10223000009000BF0098411E0091FAD20EE080E0AD
:10224000C0F80080FFF7CEFC074604E0FFF7CAFCA9
:10225000C01B022875D8686A8007F7D42078400729
:1022600060D5E8690027C00008D4E86940F08050D4
:10227000E861E869012700F0805000905C4801683F
:10228000C90513D40168834641F480710160FFF7EA
:10229000A9FC824606E000BFFFF7A4FCA0EB0A0001
:1022A00064284ED8DBF80000C005F5D5E0680128A9
:1022B0000AD008B1052813D0286A20F0010028624E
:1022C000286A20F0040002E0286A40F00100286239
:1022D000E06841F2883B98B1FFF784FC82460BE04E
:1022E000286A40F004002862EEE700BFFFF77AFC9E
:1022F000A0EB0A0159455AD8286A8007F6D50CE0A8
:10230000FFF770FC824605E0FFF76CFCA0EB0A01CA
:1023100059454CD8286A8007F6D41FB1E86920F0E7
:102320008050E861E06988B36968C1F381010229DE
:1023300044D00228C6F8608004D0FFF753FC04465E
:1023400038E034E0FFF74EFC074604E0FFF74AFCB4
:10235000C01B02282BD828688001F7D4206AB0F56A
:10236000803F05D16868A16820F4003008436860A8
:10237000D4E908010843696821F4741108436860CE
:10238000C6F86090FFF72EFC044606E025E000BF8B
:10239000FFF728FC001B022809D828688001F7D520
:1023A0001BE000BFFFF71EFC001B022802D9032020
:1023B000BDE8F88F28688001F4D40EE00128F7D03A
:1023C0006868226A00F48031914204D1616A00F4A5
:1023D0007010884201D00120EAE70020E8E7000001
:1023E000001002400000424280044242500400209B
:1023F0000070004010B5401EB0F1807F01D3012075
:1024000010BD4FF0E02460610F21601702F094FBD3
:102410000020A06107202061002010BD7047704798
:1024200010B590F83C20012A22D0012280F83C20EF
:10243000CA688C6822F4407222434C6822F480629D
:1024400022430C6822F4006222430C6922F4805279
:1024500022434C6922F400522243C969002322F42A
:1024600080420A4301684A6480F83C30002010BD75
:10247000022010BD70B590F83C20012A26D001241E
:1024800080F83C40022280F83D2003685A689D682D
:1024900022F070060A6832435A600D4B02689A4275
:1024A00008D0B2F1804F05D00A4B9A4202D00A4BB5
:1024B0009A4204D1496825F080031943916080F85D
:1024C0003D40002180F83C10084670BD022070BDE0
:1024D000002C0140000400400008004010B504003A
:1024E00003D094F83D0010B107E0012010BD00209A
:1024F00084F83C00204600F01FF8022084F83D00DC
:10250000211D206801F0D2FF012084F8460084F8E4
:102510003E0084F83F0084F8400084F8410084F8CD
:10252000420084F8430084F8440084F8450084F8AD
:102530003D00002010BD000008B5114A0168114897
:10254000914208D1816941F400618161806900F4A0
:102550000060009008BD0C4A9142FBD1C16941F076
:102560000201C161C069012200F002000090114621
:102570001D20FFF7B7FBBDE808401D20FFF7A5BBF6
:10258000002C0140001002400004004070B50446D9
:1025900090F83C00012817D0012584F83C50022017
:1025A00084F83D002068826822F0770222F47F429E
:1025B00082600868502830D00DDC20284DD005DC22
:1025C00098B310283BD148E0022070BD302844D099
:1025D000402834D139E0602828D0702806D0B0F5E2
:1025E000805F2CD0B0F5005F29D10AE0CB68D1E93B
:1025F0000121206801F09DFF2068816841F077018A
:1026000009E0CB68D1E90121206801F092FF206840
:10261000816841F48041816011E0CA68496820689E
:1026200002F03CF85021206807E016E0CA684968CB
:10263000206802F044F86021206801F084FF84F8EB
:102640003D50002084F83C0070BDCA68496820688D
:1026500002F024F840212068EFE722680146104686
:10266000EBE72DE9F0410D46040003D094F83D005E
:1026700018B108E00120BDE8F081002084F83C009A
:10268000204600F041F8022084F83D00206881686F
:1026900044F2070291438160211D206801F006FF8A
:1026A000226890689169166A2B68AF69034340F20B
:1026B0000330814341EA0721A868EF6908434FF6D8
:1026C000FC418843E96840EA0720014328692F6AF2
:1026D000000140EA0730084369686D6926F0220668
:1026E00046EA0515294393602268906154F8460B29
:1026F0000162012004F81F09E0752076E07620775A
:10270000A0750020B7E7000000B585B0002100915A
:1027100001910291039101681A48B1F1804F1BD0D9
:10272000194A914216D1C16941F00401C161C169E0
:1027300001F004010491816941F00801816180691F
:10274000694600F008000490C02000900F4800BFC8
:10275000FFF752F905B000BDC16941F00101C16147
:10276000C16901F001010491816941F004018161B5
:102770008069694600F0040004900320009004483A
:10278000E6E700000010024000080040000C014095
:102790000008014070B590F83E60044690F83F5044
:1027A00090F8423090F84320022021B104290ED045
:1027B000012E1BD114E0012E18D1012B16D184F863
:1027C0003E0084F8420001220021206820E0012D13
:1027D0000CD1012A0AD184F83F0084F8430014E0A8
:1027E000012D03D1012B01D1012A01D0012070BD9F
:1027F00084F83E0084F83F0084F8420084F84300E7
:1028000001220021206801F087FE012204212068B6
:1028100001F082FE2068016841F0010101600020A2
:1028200070BD704770B50446006801694FF000053F
:10283000C943890715D4C168C943890711D4E91E62
:10284000016101202077206880698007204602D03E
:10285000FFF7E7FF04E000F0BFF8204600F04EF974
:10286000257720680169C943490717D4C168C9435E
:10287000490713D46FF0040101610220207720681A
:10288000806910F4407F204602D0FFF7CAFF04E0C1
:1028900000F0A2F8204600F031F9257720680169A0
:1028A000C943090716D4C168C943090712D46FF098
:1028B00008010161042020772068C0698007204654
:1028C00002D0FFF7AEFF04E000F086F8204600F0EB
:1028D00015F9257720680169C943C90617D4C1686D
:1028E000C943C90613D46FF0100101610820207795
:1028F0002068C06910F4407F204602D0FFF791FFA6
:1029000004E000F069F8204600F0F8F82577206828
:102910000169C943C90708D1C168C943C90704D1BE
:10292000891E0161204600F039F920680169C94318
:10293000090609D4C168C943090605D46FF08001AE
:1029400001612046FFF76AFD20680169C943490615
:1029500009D4C168C943490605D46FF0400101613B
:10296000204600F01CF920680169C94389060BD490
:10297000C168C943890607D46FF020010161204670
:10298000BDE87040FFF74BBD70BD000000B585B0DD
:102990000021009101910291039100680B49884246
:1029A00012D10B48816941F0040181618069694657
:1029B00000F0040004904FF4106000900220019099
:1029C00003900448FFF718F805B000BD002C014043
:1029D0000010024000080140704770B5044690F8AE
:1029E0003C000D4601280AD0012084F83C0042B189
:1029F000042A18D0082A2AD00C2A4DD139E0022006
:102A000070BD206801F0A8FD2068816941F00801CF
:102A100081612068816921F00401816120688169F8
:102A20002A69114311E0206801F0BEFD2068816928
:102A300041F4006181612068816921F480618161D4
:102A4000206881692A6941EA0221816124E02068C5
:102A500001F0D6FD2068C16941F00801C16120681C
:102A6000C16921F00401C1612068C1692A6911436B
:102A700011E0206801F0F0FD2068C16941F40061B7
:102A8000C1612068C16921F48061C1612068C169A8
:102A90002A6941EA0221C161002084F83C0070BD2E
:102AA00010B5040003D094F83D0010B107E00120F8
:102AB00010BD002084F83C00204600F01EF80220E3
:102AC00084F83D00211D206801F0F0FC012084F80D
:102AD000460084F83E0084F83F0084F8400084F803
:102AE000410084F8420084F8430084F8440084F8EC
:102AF000450084F83D00002010BD7047704700007D
:102B000010B50446022249B104290ED0082913D079
:102B100094F84100012816D0012010BD94F83E0021
:102B20000128F9D184F83E200FE094F83F000128F5
:102B3000F2D184F83F2008E094F840000128EBD15E
:102B400084F8402001E084F841200122206801F04F
:102B5000E3FC0F492068884203D1426C42F40042F2
:102B600042642068884208D0B0F1804F05D00949FE
:102B7000884202D00849884204D1816801F00701E7
:102B8000062903D0016841F001010160002010BD59
:102B9000002C0140000400400008004070477047CE
:102BA00070477047F8B5026804461068D1685369E9
:102BB00010F00F0F4FF0000553D003F0010601F4A1
:102BC000907737435FD0C20705D0CA0503D5226C82
:102BD00042F001022264420705D5DA0703D0226CD5
:102BE00042F002022264820705D5DA0703D0226C84
:102BF00042F004022264020707D501F020023243AA
:102C000003D0226C42F008022264226C002A34D0E5
:102C1000800604D5880602D5204601F0FDFD206817
:102C20004069216CC0F38010090700D430B32046FE
:102C300001F0DAFD2068416949061BD5416921F0A0
:102C400040014161A06BA8B158494163A06BFEF7F8
:102C5000F1FD002811D0A06B416B01B0BDE8F04040
:102C6000084783060FD58B060DD52046BDE8F840F2
:102C700001F0D2BD2046FFF794FFF8BD2046FFF7D4
:102C800090FF2564F8BD266B2023012E52D1C60685
:102C900050D5CE064ED51068506800905069400659
:102CA0002AD5A16B086840680004000CEAD0A68D04
:102CB0008642E7D9E0858869202818D0D06820F4BA
:102CC0008070D0602068416921F001014161206875
:102CD000416921F04001416184F83E30256320685C
:102CE000C16821F01001C160A06BFEF77FFDA08DCF
:102CF000E18D401A81B219E0A08DE18D401A81B2B8
:102D0000E08D0028BED00029BCD0D06820F490709F
:102D1000D0602068426922F00102426184F83E30AE
:102D200025632068C26822F01002C2602046FFF7C7
:102D300037FFF8BD05062BD50D0629D594F83D00C3
:102D40002128F6D1A068B0F5805F01D12069B0B12B
:102D5000206A411C2162216800784860E08C401E96
:102D60000004000CE084E4D12068C16821F08001F7
:102D7000C1602068C16841F04001C160F8BD206AAF
:102D80000088C0F308005060206A801C2062E5E7DC
:102D90004006F3D54806F1D5D168204621F0400120
:102DA000D16084F83D3000F093F9F8BDD9470008B0
:102DB00070B5040004D094F83D00002510B106E081
:102DC000012070BD84F83C50204600F023F82420F8
:102DD00084F83D002068C16821F40051C16020469C
:102DE00001F076FD2068016921F4904101612068BD
:102DF000416921F02A0141612068C16841F4005114
:102E0000C1602564202084F83D0084F83E00002045
:102E100070BD000070B586B0002400940194029447
:102E2000039403682B482A4E022103220515B3425E
:102E300021D1836943F480438361836903F4804330
:102E40000493836943F0040383618069224E00F098
:102E5000040004900802CDE900010392694630465F
:102E6000FEF7CAFDCDE90054694630460294FEF7EC
:102E7000C3FD06B070BD194EB342FAD1C36943F425
:102E80008023C361C36903F480230493836943F0FF
:102E9000080383618069CDE9005100F00800CDE9A5
:102EA00003200F4D69462846FEF7A6FDE814CDE93C
:102EB0000004694628460294FEF79EFD0122002187
:102EC0002720FEF70FFF2720FEF7FFFED1E70000C7
:102ED0000038014000100240000801400048004056
:102EE000000C014090F83E30202B0ED159B152B168
:102EF00090F83C30012B08D0012380F83C300023AF
:102F0000036301F041BD01207047022070470000BB
:102F10002DE9F04700685E4988427DD15D485D4CEF
:102F2000DFF874C10078E41E5C4AA0605C4B5D4E23
:102F30005D4F0121002520714FF00209592814D05E
:102F4000582815D05A2815D0412815D0452817D013
:102F5000422818D0432816D0442814D0462817D029
:102F6000472815D0482813D004E08CF8009001E0E1
:102F70008CF80010157000E011701D7035700AE0BB
:102F800015701970FAE715701D703570397003E00F
:102F900015701D7031703D703E4A444BD21E7B2827
:102FA000527807D07D280AD02678012E03D0022E31
:102FB00007D062E021709854521C62705DE084F882
:102FC0000090D878502805D0587823284DD0A2708A
:102FD00099462BE03648017047E06178081A04F002
:102FE000F8FD02460B460020324903F0C5FD0646B7
:102FF000A0780F468046484410F8010C303804F0A1
:10300000E8FD3B46324604F04BFE06460F46E068BC
:1030100005F056F9324600E037E03B4604F05AFB33
:1030200004F026FBE060A8F10100A070A07804285D
:10303000D3D299F801003038062816D2DFE800F024
:103040000306090C0F121C49E0680DE01B49E068FB
:103050000AE01B49E06807E01A49E06804E01A4901
:10306000E06801E01949E068086025706570A570A6
:1030700032210E48E560FDF7B7F9BDE8F0470B488F
:10308000012204497830FFF72DBFBDE8F08700002A
:10309000004800408300002004000020440000207D
:1030A0004500002046000020470000205404002076
:1030B0004800002000002440080000200C000020F0
:1030C0001000002014000020180000201C00002028
:1030D0007047FEE770B50D46044600F0C1F8204683
:1030E00000F08EF800F004F9284600F089F800F0AE
:1030F000FFF800F0B5F8641CE0B200F081F800F0D1
:10310000F7F8002000F046F8044600F0D1F8204619
:1031100070BD000070B50D4C0025C4F8A0510C48DE
:10312000016821F0F0010160016841F030010160A7
:10313000C4F8A451012004F5D07402F015F8012060
:10314000206002F011F8256070BD0000008021426F
:10315000040C014070B50D4C0025C4F8A0510C487A
:10316000016821F0F0010160016841F03001016067
:103170000126C4F8A461304604F5D07401F0F4FFD0
:103180002660012001F0F0FF256070BD0080214223
:10319000040C01402DE9F0478146174800240168DE
:1031A00021F0F0010160016841F080010160134EDF
:1031B000254627464FF00108C6F8A071022001F00D
:1031C000D3FFC6F8A0816006040ED6F8240108B12A
:1031D000641CE4B2022001F0C7FF6D1CEDB2082DA3
:1031E000EAD3B9F1000F02D0FFF794FF01E0FFF737
:1031F000B1FF2046BDE8F087040C01400080214269
:103200002DE9F04106461448016821F0F001016003
:10321000016841F030010160104C0027C4F8A07132
:103220003D464FF00108F009C4F8A4017006060EEF
:10323000012001F099FFC4F8A081012001F094FF62
:10324000C4F8A071012001F08FFF6D1CEDB2082DB4
:10325000E9D3BDE8F0810000040C01400080214268
:1032600070B51148016821F0F0010160016841F07A
:10327000300101600D4C0120C4F8A401D4F82411E0
:1032800049B1C4F8A00101F06FFF0025C4F8A451B2
:10329000D4F8240108B1002070BD012001F064FFC2
:1032A000C4F8A051012070BD040C014000802142EF
:1032B0000D4810B5016821F0F0010160016841F08E
:1032C00030010160094C0020C4F8A001C4F8A40139
:1032D000012004F5D07401F047FF012020606060F8
:1032E000BDE8104001F040BF040C014000802142C5
:1032F00070B513480024016821F0F00101600168F5
:1033000041F0800101600F4D0126C5F8A4613046EF
:1033100001F02AFFC5F8A06107E0641CE4B2322C7A
:1033200003D9FFF7C5FF002070BD012001F01CFF8D
:10333000D5F824010028F0D1C5F8A001012070BD06
:10334000040C01400080214210B51446FFF7C2FE74
:103350002070012010BDF8B515461C460E460746E4
:103360006A46FFF7F1FF01209DF80010A8400CB15C
:10337000084301E021EA0000C2B28DF80020314686
:10338000384600F02BF8F8BD2DE9F84314461D46E9
:103390000F4680466A46089EFFF7D6FF00281BD0DE
:1033A000611CFF20C4F1080200FA01F12A44521EF8
:1033B000D0400143C5F108008640F2B2C4F10700D5
:1033C000C2409DF80000084010438DF80000C2B2D2
:1033D0003946404600F002F8BDE8F88307B502AB75
:1033E000012200F001F80EBD2DE9F0411E46154600
:1033F000884607460024FFF733FF3846FFF700FFF3
:10340000FFF776FF4046FFF7FBFEFFF771FF06E090
:10341000305DFFF7F5FEFFF76BFF641CE4B2AC42D2
:10342000F6D3FFF745FF0120BDE8F0812DE9F34F0A
:10343000524D8BB00846A9684F4E039105F0D4F960
:103440002968009105F0FAF8696804F065FF05F154
:103450005404804667683046394605F0C5F9D4F80B
:1034600008A0514605F0C0F945490860E268914658
:1034700082F00046434A4E60C1E90262009905F0BD
:10348000DDF8216804F048FF05903046009905F00A
:10349000D5F80646394604F03FFF8346304651468C
:1034A00004F03AFF82463748009905F0C7F84946CC
:1034B00004F032FF81464FF07E50059905F0BEF8CA
:1034C000064651464FF07E5005F0B8F8029031465E
:1034D0004FF07E5005F0B2F84FF07C5104F01CFF25
:1034E00007460146304604F07FFF019039460298B6
:1034F00004F07AFF009041460B9805F075F90146FB
:103500000290019805F09AF8414604F005FF6860C2
:1035100007460299009805F091F8039904F0FCFE23
:10352000A86059464FF07E5005F088F805463146B0
:10353000019805F083F8059905F04CF920602946BB
:10354000019805F07BF8594605F044F96060314672
:10355000009805F073F8514605F03CF9A060294643
:10356000009805F06BF8494605F034F9E0600DB0BD
:103570003846BDE8F08F00006F12833A98000020B3
:103580003C050020A69B443B2DE9F34F524D8DB0E6
:103590000846296B4F4E089105F026F929680091DD
:1035A00005F04CF8E96A04F0B7FE05F164040690F2
:1035B00067683046394605F017F9D4F8089049464F
:1035C00005F012F945490860E268904682F000462D
:1035D000434A4E60C1E90262009905F02FF8216864
:1035E00004F09AFE83463046009905F027F8064617
:1035F000394604F091FE82463046494604F08CFE7E
:1036000081463748009905F019F8414604F084FED8
:10361000804606990D9805F0E7F8039059464FF05B
:103620007E5005F00BF8064649464FF07E5005F0F7
:1036300005F8049031464FF07E5004F0FFFF4FF044
:103640007C5104F069FE07460146304604F0CCFE8A
:1036500001903946049804F0C7FE009051464FF09F
:103660007E5004F0EBFF07463146019804F0E6FF78
:10367000594605F0AFF820603946019804F0DEFFA6
:10368000514605F0A7F860603146009804F0D6FF77
:10369000494605F09FF8A0603946009804F0CEFF37
:1036A000414605F097F8E0600399019804F0C6FFE1
:1036B000069904F031FEE86204460399009804F08C
:1036C000BDFF089904F028FE28630FB02046BDE82E
:1036D000F08F00006F12833A980000204C05002004
:1036E000A69B443B00B5322001F0CEFC012804D15A
:1036F0000948017859B10021017000F011F8012842
:1037000004D10648017821B10021017000BD0121DA
:10371000F2E70121F9E7000000000020010000208D
:103720000C48002142891AB90B4BD3F814310BB164
:1037300001810AE003895B1C9BB20381C82B04D979
:1037400001224281018110467047012A00D1418146
:1037500000207047380400200000214210B50220EC
:1037600000F011F8032000F020F8002000F014F819
:10377000002000F02FF8002000F026F8BDE81040EF
:10378000002000F01BB808B50323009002226B2133
:10379000D020FFF7F9FD08BD08B5022300900422F0
:1037A0001C21D020FFF7F0FD08BD08B502230090D2
:1037B00004221B21D020FFF7E7FD08BD03460122AC
:1037C0003721D020FFF7C7BD034605226A21D0204C
:1037D000FFF7C1BD034606226B21D020FFF7BBBD1A
:1037E0003EB5002412480094019402940F4984606D
:1037F000016004730475012505614FF46021446084
:10380000C161FDF73BFE08B1FDF79EFA0620CDE948
:103810000005694602940648FDF7AEFD08B1FDF7C4
:1038200093FA0348FDF73CFD3EBD00000024014033
:103830005C0500202DE9F04385B000253A4800954D
:10384000019502950395816941F0200181618169AB
:1038500001F020010491816941F0040181618169D5
:1038600001F004010491816941F0080181618069DE
:10387000DFF8B88000F008000490012210214046D3
:10388000FEF7AAF9DFF8A89000224FF23801484667
:10389000FEF7A2F94FF40047002239464046FEF7F2
:1038A0009BF901224FF440714846FEF795F910202C
:1038B000012403268DE8710069464046FEF79CF816
:1038C0002020CDE90005694602944046FEF794F8B1
:1038D0004FF473408DE8710069464846FEF78CF856
:1038E000200300901348CDE9010469464046FEF7E5
:1038F00083F80097CDE90145694640460394FEF7F9
:103900007BF838208DE83100694648460394FEF77D
:1039100073F8012202212820FEF7E4F92820FEF79F
:10392000C3F905B0BDE8F083001002400008014073
:10393000000C01400000211010B596B000240F9437
:1039400010941194129413941C2168461494FCF75B
:103950004BFD202107A8FCF747FD30482E49C0E960
:10396000001441F61F41C0E9024180210461C0E911
:103970000541FEF7B3FD08B1FDF7E6F94FF48050BD
:103980000F900FA92548FEF701FE08B1FDF7DCF9FD
:103990002248FFF785F808B1FDF7D6F9139413A96B
:1039A0001E481494FEF766FD08B1FDF7CDF96020BE
:1039B000CDE900040294039404940594002269461E
:1039C00016480694FFF709F808B1FDF7BDF90C2277
:1039D00069461248FFF701F808B1FDF7B5F90794F9
:1039E000089409944FF400500A94CDE90B4007A9BC
:1039F0000A480E94FEF714FD08B1FDF7A5F9002161
:103A00000648FFF77DF80C210448FFF779F80348D2
:103A1000FEF7BCFF16B010BD002C01408C05002045
:103A200010B58CB024216846FCF7DEFC0024164853
:103A300009944FF080410A94C0E900144FF6FF71D9
:103A4000C0E90241046184610120CDE90004CDE9AF
:103A500002040494CDE90540079469460A48089495
:103A6000FEF7FFFD08B1FDF76FF9099409A90648B3
:103A70000A94FEF7FFFC08B1FDF766F93C21024805
:103A8000FEF788FE0CB010BDD405002010B586B03E
:103A90000024174800940194029403940494134959
:103AA000059401604721C0E901144FF6FF71C0E998
:103AB000031480218161FEF711FD08B1FDF744F97F
:103AC0004FF48050009069460948FEF75FFD08B149
:103AD000FDF73AF9049404A905480594FEF7CAFCD9
:103AE000002801D0FDF730F906B010BD00040040F9
:103AF0001C06002010B58CB024216846FCF774FC2D
:103B000000241748099415490A94C0E900144FF697
:103B1000FF71C0E90241046184610120CDE9000424
:103B2000CDE902040494CDE90540079469460C48A8
:103B30000894FEF796FD08B1FDF706F9099409A966
:103B400007480A94FEF796FC08B1FDF7FDF83C2102
:103B50000348FEF71FFE0CB010BD00000008004037
:103B6000640600200C4810B50A4901604FF4E131A9
:103B70004160002181600C22C160C0E904128161B2
:103B8000C161FFF715F9002803D0BDE81040FDF72B
:103B9000DBB810BD00380140880400200E4810B585
:103BA0000C4901604FF416514160002181600C22E4
:103BB000C160C0E904128161C161FFF7F9F808B181
:103BC000FDF7C2F8BDE81040012204490248FFF7A2
:103BD00089B9000000480040CC0400208300002088
:103BE000FEE7FEE710B40021084B0A465FF0000034
:103BF00003EBC004401CC0B262548028F8D3491CB7
:103C0000C9B20829F2D310BC00F018B9BC060020D4
:103C10002DE9FF4F1D460C468946580700D001206C
:103C200000EBD50069084843203A00F0FF0A02F093
:103C3000FF0B002639E00C2D0FD0102D11D0182DC0
:103C400035D11C490BEBCB0001EB80004FF0000895
:103C5000875D380609D50D9A0AE00BEB4B00164933
:103C6000F2E7164901EB0B10F0E70D9890B1002236
:103C70002146009800F024F87806641C070EE4B290
:103C8000A4EB0900A84207D100984C46401CC0B2E2
:103C9000009008E00122EBE708F1010000F0FF08C6
:103CA000B8F1080FD5D3761CF6B25645C3D3BDE89C
:103CB000FF8F0000BAA0000856960008CA9A0008B4
:103CC00010B57F2816D83F2914D80723A3EBD103BA
:103CD00001F00701C1F107040121A140064CDBB24C
:103CE00004EBC000002AC25CC9B201D00A4300E064
:103CF0008A43C25410BD0000BC0600202DE9F847DD
:103D000004461F46802016460D46A0EB5709C3F116
:103D100040084FF0010A16E0A14502D20024E8193C
:103D2000C5B2A84503DA00242546FFF75BFFCDF8AE
:103D300000A032783B4629462046FFF769FF04EB96
:103D40005700C4B2761C30780028E5D1BDE8F8876A
:103D500010B5394C0020C4F88C01642004F5C674F9
:103D6000FDF7B4FD012020600021AE2000F00CF929
:103D70000021D52000F008F90021502000F004F9BE
:103D80000021A82000F000F900213F2000F0FCF8FD
:103D90000021D32000F0F8F80021084600F0F4F8E4
:103DA0000021402000F0F0F800218D2000F0ECF818
:103DB0000021142000F0E8F80021202000F0E4F8B1
:103DC0000021022000F0E0F80021A12000F0DCF842
:103DD0000021C02000F0D8F80021DA2000F0D4F84B
:103DE0000021122000F0D0F80021812000F0CCF852
:103DF0000021EF2000F0C8F80021D92000F0C4F81D
:103E00000021F12000F0C0F80021DB2000F0BCF818
:103E10000021302000F0B8F80021A42000F0B4F810
:103E20000021A62000F0B0F80021AF2000F0ACF88F
:103E3000BDE81040FFF7D6BE0080214270B5114E9C
:103E4000002400BF04F1B000C0B2002100F09CF8D3
:103E50000021084600F098F80021102000F094F8A6
:103E60005FF0000506EBC5000121005D00F08CF855
:103E70006D1CEDB2802DF5D3641CE4B2082CE1D3A7
:103E800070BD0000BC0600202DE9FF4F81B0002668
:103E9000DDF838A01D469346814634464FF00108B0
:103EA0004FEA5A0727E0281B401EC1B20A2002F041
:103EB0005BFEBBFBF0F00A21B0FBF1F201FB12004C
:103EC00026B9691E8C4201DA48B101263030C2B2EF
:103ED00007FB0490C0B25346CDF8008006E007FB14
:103EE0000490C0B253462022CDF800800299FFF71B
:103EF0008FFE641CE4B2AC42D5D305B0BDE8F08FB0
:103F00002DE9F84F0C4683460A991E46A1465807EC
:103F100000D0012000EBD60000FB02FA0BEB020000
:103F200080282FD8A01940282CD80025009127E000
:103F300000984FF00008475D380601D50B9A02E063
:103F40000B9890B1002221465846FFF7B9FE78063B
:103F5000641C070EE4B2A4EB0900B04207D10BF1D8
:103F600001004C4600F0FF0B08E00122EBE708F1EE
:103F7000010000F0FF08B8F1080FDDD36D1CADB2F1
:103F80005545D5D3BDE8F88F70B50F4C00250122FB
:103F900011B1C4F8BC2101E0C4F8BC510B4B0021A5
:103FA000C3F89451060602D5C3F8902101E0C3F886
:103FB0009051C3F894214006491C000EC9B208294B
:103FC000EED3C4F8BC2170BD000021420080214224
:103FD0007CB500210C239DA20846FFF78FFE9D4C67
:103FE0009D4D2068A84208D30C239CA200212420C8
:103FF000FFF784FE2068A84205D20C2398A2002176
:104000002420FFF77BFE206804F0B0FA02F0A8FD40
:1040100002460C240323002130200094FFF734FFD4
:104020000C2390A20A210020FFF768FE8F4E306813
:10403000A84208D30C2389A20A212420FFF75EFEA0
:104040003068A84205D20C2385A20A212420FFF75C
:1040500055FE306804F08AFA02F082FD024604231D
:104060000A212A200094FFF70FFF0C2380A21921B8
:104070000020FFF743FE7F4E3068002808DA0C234B
:1040800076A219211846FFF739FE3068002805DBB3
:104090000C2373A219211846FFF730FE306802F096
:1040A0005FFD02460423192112200094FFF7ECFE65
:1040B000714E3068A84208D30C2368A219213C2015
:1040C000FFF71CFE3068A84205D20C2364A2192118
:1040D0003C20FFF713FE306804F048FA02F040FD80
:1040E00002460423192144200094FFF7CDFE0C233F
:1040F00062A219216020FFF701FE0C2361A2242196
:104100000020FFF7FBFD604E3068002808DA0C2322
:1041100052A224211846FFF7F1FD3068002805DB84
:104120000C234FA224211846FFF7E8FD306802F067
:1041300017FD02460423242112200094FFF7A4FE59
:10414000524E3068A84208D30C2344A224213C20BC
:10415000FFF7D4FD3068A84205D20C2340A22421E9
:104160003C20FFF7CBFD306804F000FA02F0F8FCC9
:1041700002460423242144200094FFF785FE0C23EB
:104180003EA224216020FFF7B9FD0C2340A232217A
:104190000020FFF7B3FD3F4D64260223286832213B
:1041A00090FBF6F20C200094FFF76EFE0C233AA26F
:1041B00032211920FFF7A2FD2868022390FBF6F1B7
:1041C00006FB110232211E200094FFF75DFE2868D5
:1041D00090FBF6F106FB11000A2805DA0C232FA24A
:1041E00032211E20FFF78AFD0C2329A232212A202A
:1041F000FFF784FD0C232AA232213C20FFF77EFD2D
:104200000C2329A232215C20FFF778FD274C20786F
:1042100038B10C2326A232216620FFF76FFD2078EB
:1042200028B90C2323A232216620FFF767FD012164
:104230002148CDE9000113232F2202214820FFF756
:104240005FFEBDE87C40FFF7F9BD0000416E676C82
:104250006500000020000020000080802D0000008C
:104260002B0000004779726F7800000024000020C6
:104270004C0000003C0000202C0000206D6D2F73CE
:10428000000000005200000040000020300000202C
:1042900056000000380000202E0000003000000012
:1042A0006D6F746F720000003A0000000000002083
:1042B0004F4646004F4E20008C030020884200DD10
:1042C0000846904200DA10467047704700210228E5
:1042D00005D0032809D0042809D0002070474FF0EA
:1042E0008042506A516200B27047034A00E0034ABC
:1042F0001068116000B27047240400402408004098
:104300007047000030B500230124114A002804DD65
:10431000C2F8B441C2F8B03103E0C2F8B431C2F817
:10432000B04102F01DFC0B4D2860002904DDC2F8ED
:10433000BC41C2F8B83103E0C2F8BC31C2F8B841A0
:10434000084602F00DFC03490C39086030BD00003E
:1043500000802142402C01401CB501242148CDE9B8
:10436000000440234A2200211B20FFF7C9FDFFF76C
:1043700065FD4FF4FA70FDF7A9FAFFF733FC102240
:1043800019A3002110460094FCF7EAFC1AA310229E
:1043900019211C200094FCF7E3FC102318A219211A
:1043A0003C20FFF7ABFC17A31022192154200094E6
:1043B000FCF7D6FC14A310222F2100200094FCF758
:1043C000CFFC0C2312A231213620FFF797FCFFF718
:1043D00035FD4FF47A70FDF779FABDE81C40FFF720
:1043E00001BC00003C010020BAD3C4CFBFC6BCBC96
:1043F000B4F3D1A700000000B5E7C6F80000000044
:1044000031383100B0E00000CEE2E5D0B7E3000083
:10441000313831343938303030333836000000002C
:10442000FDF7E6BB30B593B028216846FBF7DCFF0B
:1044300014210AA8FBF7D8FF002501200F9510953D
:104440001195010412958DE8230004904FF4E010BB
:10445000CDE90810022407946846FDF73BFE08B139
:1044600072B6FEE70AA90F2081E831004FF48060A0
:10447000CDE90D0502210AA8FDF740FD08B172B68D
:10448000FEE74FF4004011900F940FA8FDF7C0FC19
:10449000002801D072B6FEE713B030BD70470000AF
:1044A0000148FEF7BFB900001C060020F0B5026805
:1044B000164B174C174D4FF08047984205D0B84225
:1044C00003D0A04201D0A84203D122F070064A686E
:1044D0003243984205D0B84203D0A04201D0A8424E
:1044E00003D122F44074CA6822434C6922F080024E
:1044F000224302608A68C2620A688262984201D1DD
:104500000969016301214161F0BD0000002C0140F7
:10451000000400400008004010B501F01F03012115
:10452000046A99408C430462016A9A401143016213
:1045300010BD10B5846842EA032224F47F440A4384
:104540002243826010BD826822F070020A4342F06A
:10455000070181607047000030B5026A22F0010255
:104560000262026A4368846924F073050C682C4374
:1045700022F002058A682A430A4DA8420BD122F094
:104580000805CA6823F440732A434D6922F00402E7
:104590001D438B692B434360846149684163026218
:1045A00030BD0000002C014030B5026A22F010023C
:1045B0000262026A436884690D6824F4E64444EAAE
:1045C00005248D6822F0200242EA05120B4DA84214
:1045D0000ED1CD6822F0800242EA05124D6923F423
:1045E000406343EA85038D6922F0400243EA850374
:1045F0004360846149688163026230BD002C0140E0
:1046000030B5026A22F480720262036A4268C469A9
:1046100023F4007324F073050C682C438D6843EA7F
:1046200005230C4DA8420ED1CD6823F4006343EA64
:1046300005234D6922F4405242EA05128D6923F4A4
:10464000806342EA05124260C4614968C163036243
:1046500030BD0000002C014030B5026A22F48052C7
:104660000262046A4268C3690D6823F4E64343EAC0
:1046700005238D6824F4005444EA0534064DA8420D
:1046800004D14D6922F4804242EA85124260C3613E
:1046900049680164046230BD002C014010B5036A12
:1046A000046A24F001040462846924F0F00444EAFA
:1046B000021423F00A020A438461026210BD10B59D
:1046C000036A23F0100303628369046A23F47043CE
:1046D00043EA023224F0A00343EA0111826101623D
:1046E00010BD00002DE9F04107462048224C066825
:1046F0001F48256B01781F480129007825D01F49E4
:104700000978012927D00020A0621D4800780128DF
:1047100028D01C480078012824D00021384603F016
:104720008DFF194F394603F05FFE05463146A06AFA
:1047300003F084FF394603F057FE294603F0ECFDF1
:10474000E062BDE8F04103F011BF03F063FF0146F2
:1047500085F0004003E003F05DFF0146284603F0CA
:1047600043FED1E709480168D8E70000180000209F
:1047700046000020040000204C00002047000020DC
:1047800044000020450000200000C8421C0000201A
:104790000D4A90420AD80D4A904207DC0C48007836
:1047A000012803D040F2564081420BDA094A012029
:1047B0000021C2F8B811C2F8BC11C2F8B411C2F895
:1047C000B011704700207047000020C20000204256
:1047D000000000200080214210B5406A0021C18500
:1047E000C184FEF7DEF910BD0168CA6822F4907238
:1047F000CA6001684A6922F001024A61016B01291D
:1048000004D10168CA6822F01002CA60202180F831
:104810003E1000210163704708B590F83E10222930
:1048200001D0022008BD82684FF480539A4201D122
:10483000016921B1816A9A421BD04AB10AE002683B
:10484000816A5268C2F308020A80816A891C08E002
:10485000026972B10268526802F07F020A70816ACE
:10486000491C8162C18D491E0904090CC18503D010
:1048700019E002685268F1E70168CA6822F0200274
:10488000CA600168CA6822F48072CA6001684A6915
:1048900022F001024A61202180F83E10016B0129BB
:1048A00003D0FEF735FB002008BD0021016301683D
:1048B000CA6822F01002CA6001680A68D20602D5EE
:1048C0000A6849680091818DFEF76AF9EBE70000FC
:1048D00070B5044600680169E26821F44051114353
:1048E00001612169A0680843616908432168CA68B9
:1048F00041F20C639A430243CA6020684169A2698D
:1049000021F44071114341611E492068884202D15F
:10491000FDF79AFB01E0FDF787FB00EBC00101EB1F
:104920000012606864218000B2FBF0F3B3FBF1F386
:104930006FF018067343B2FBF0F5B2FBF0F605EB2F
:104940008305322303EB0515B5FBF1F5B6FBF1F654
:1049500005F0F00505EB0615B2FBF0F6B2FBF0F042
:10496000B0FBF1F06FF01802504306EB800003EB50
:104970000010B0FBF1F0216800F00F0028448860BF
:1049800070BD00000038014081628285C28500212F
:104990000164222280F83E2080F83C100168CA6839
:1049A00042F48072CA6001684A6942F001024A61B9
:1049B0000068C16841F02001C1600020704700001C
:1049C0000148FEF7EFB80000CC040020FEE700002D
:1049D0002DE9F04107463D480E463E4C01783C48E3
:1049E000656A4FF00008007801295AD03A490978E1
:1049F00001295BD0C4F81C80B819404203F0F2FDD5
:104A000005466061A06903F05BFC344A344B03F057
:104A100047F902F02DFE0746284603F051FC314AC3
:104A2000314B03F03DF905460E46384603F048FC8D
:104A30002A46334602F04EFE02F01AFE05460146B3
:104A4000A061206A03F068FCE16903F065FC274976
:104A50002062884202DC2649884200D9216225482A
:104A60000168206A03F0EAFD234903F0BDFC064615
:104A700022480168284603F0E1FD214903F0B4FC17
:104A8000314603F0B1FE20611E4801681E480068EF
:104A9000FFF77EFE012812D01C48007801280ED0B6
:104AA0000FE003F0B7FD0146284604E003F0B2FD35
:104AB000014685F0004003F097FCE0619CE7C4F8F4
:104AC00020802069BDE8F04103F050BD4400002083
:104AD000040000204C0000204500002085EB51B868
:104AE0001E85EB3FEC51B81E85EBC13F00401C46D4
:104AF00000401CC6140000200000C8421000002026
:104B00000000C8C238000020200000200000002063
:104B1000490050EAC12018BF04204A0D18BF40F0D8
:104B2000010040F2FF72B2EB515F08BF40F002009B
:104B3000012808BF052070470907090E002804DB7B
:104B400000F1E02080F80014704700F00F0000F141
:104B5000E02080F8141D70472DE9F0414F1E00EB56
:104B6000C7010446D1E9000115461E4637F006028A
:104B70000DD02A46334603F093F87F1E04EBC7039B
:104B8000D3E9002302F0A6FD37F00602F1D1022F8F
:104B900025D0042F13D0062F18BFBDE8F0812A4678
:104BA000334603F07DF8D4E90A2302F093FD2A4648
:104BB000334603F075F8D4E9082302F08BFD2A464A
:104BC000334603F06DF8D4E9062302F083FD2A464C
:104BD000334603F065F8D4E9042302F07BFD2A464E
:104BE000334603F05DF8D4E9022302F073FD2A4650
:104BF000334603F055F8D4E90023BDE8F04102F054
:104C000069BD0000002213461046014902F01EBE95
:104C10000000F03F012203F08EBE02F05BBD0022D7
:104C200013461046114602F011BE40F20132002038
:104C30004FF0E04103F07FBE024A0020110703F06D
:104C40007ABE000001FDFFFF704700002DE9FE4F16
:104C500007460E460025684600F0B2FE00246FF0BD
:104C60000F0AE8464FF0010957F8240056F82410BF
:104C7000401A00D5404203F0B5FC514603F089FECE
:104C800058F8241011F0FF4F0BD003F0ADFB4FF09C
:104C90007E5103F0A9FD0A4920F00040884205DC5E
:104CA00007E0084908440849884202D309FA04F099
:104CB0000543641C032CD7DB2846BDE8FE8F0000AB
:104CC000295C0F3E666666C19A99D9002DE9F84FB6
:104CD00004460D4621F0004000917349814211DCE9
:104CE0007249884201DC06D12CB120462946BDE834
:104CF000F84FFFF78FBF6E48002DCCBF6D496E494E
:104D0000BDE8F88F6D49814211DD6D498142D8BF00
:104D10004FF0FF366DDD20462946FFF7F9FE0428E7
:104D200008BFFFF789FF20462946BDE8F88F65498F
:104D3000654F25F00045814233DD6449814219DD2C
:104D4000002632464FF080432046294602F0C2FC3E
:104D500080468A4601222046294603F0ECFD0022C7
:104D60003B4603F0C3F94246534602F06FFD04464A
:104D70000D463EE001260022BA463B462046294623
:104D800002F0A8FC80460F460022534620462946E2
:104D900003F0ACF942463B4602F058FD04460D468E
:104DA00027E04B4981421BDDDFF828A102260022C3
:104DB00053462046294602F073FF00223B4602F08C
:104DC00089FC80460F46002253462046294603F0C0
:104DD0008DF942463B4602F039FD04460D4608E097
:104DE000032622462B4600203B4902F02FFD0446B5
:104DF0000D4622462B461046194602F051FF8B46BF
:104E0000824602460B4602F04BFF074602463348F5
:104E100088460B4606217844FFF79EFE52465B46C5
:104E200002F03EFF82462E488B463A464346052115
:104E30007844FFF791FE3A46434602F031FF0246BE
:104E40000B46002E504659460CDA02F043FC22462F
:104E50002B4602F025FF01B022462B46BDE8F04F5D
:104E600003F052B802F036FC22462B4602F018FF3F
:104E70001C4A7A4402EBC603D3E9002303F036F957
:104E800022462B4603F032F9174A7A4402EBC60356
:104E9000D3E9002303F038F8009A002AB8BF81F064
:104EA0000041BDE8F88F0000000010440000F07FD2
:104EB000182D4454FB21F93FFB21F9BF0000DC3FD2
:104EC0000000203E0000F33F0000F03F0000E63FFE
:104ED000008003400000F83F0000F0BF26620000A1
:104EE000E4610000826100004A6100002DE9F04D9C
:104EF0009446CCF1000423F000464CEA0404594FD8
:104F000046EAD4749A46884621F00042BC4206D84C
:104F1000454240EA050442EAD474BC4204D9BDE8E3
:104F2000F04D6246FFF779BEAAF14055A5F17F65C5
:104F300055EA0C040BD0022404EAAA744A4DDFF8A7
:104F40002CE144EAD87452EA000B04D00CE0BDE82E
:104F5000F04DFFF7BBBE002C14BF012CBDE8F08D57
:104F6000022C30D0032C32D056EA0C0B0AD0BE42B1
:104F700020D1BA4209D126F0804622F08042334641
:104F8000114617E000291ADB25E0DFF8E4B0FB4406
:104F9000002C04BFDBE90001BDE8F08D012C02BF4D
:104FA000DBE9000181F00041BDE8F08D022C0AD060
:104FB000032C0CD0BA4212D1B8F1000F0BDA2A48F8
:104FC0002C49BDE8F08D28462B49BDE8F08D2846D8
:104FD0007146BDE8F08D24482849BDE8F08D921B4C
:104FE00012153C2AC4BF204F244E10DCBAF1000F2A
:104FF000BEBF12F13C0F00273E4608DB624602F0BE
:1050000025FC21F00041FFF761FE07460E4694B1F2
:10501000012C08BF86F000460DD0194A194B022C0E
:105020003846314615D003F061F82A46BDE8F04D08
:10503000114B03F05BB8002213463846314602F0AC
:105040005DFD04BF0220FBF776FA38463146BDE825
:10505000F08D03F04BF82A46BDE8F04D064B02F008
:1050600053BF00000000F07F182D4454FB2109C0FD
:10507000DE600000FB21F9BFFB210940FB21F93F65
:10508000075C143326A6A13C30B5204BD3F814415D
:105090001F4900222CB1CA80D3F81451012425B134
:1050A00006E0CC88641CCC80F6E70D7805B90C705E
:1050B0004D784DB90D78012D03D18D786D1C8D7013
:1050C0004C708C78022C04D0D3F81431012B04D00E
:1050D00005E08A708A80022030BD0A704A708B78A1
:1050E000012B11D18B885B1C9BB28B80834206D92C
:1050F000CB88834203D28A708A80012030BDCB885E
:10510000834201D98A708A80002030BD000021428C
:10511000380400204FF0E020016921F00401016112
:1051200003480921017042F2283141807047000094
:105130000C0100200B49498848434FF0E0214861A9
:1051400000228A61086940F0010008610869C3070C
:1051500001D0C003FAD5086920F0010008618A6116
:10516000704700000C0100200B49097848434FF0BC
:10517000E021486100228A61086940F0010008616D
:105180000869C30701D0C003FAD5086920F00100FF
:1051900008618A61704700000C01002008B560B109
:1051A00020208DF8000028208DF8010030208DF897
:1051B000020038208DF8030004E0A3220421684691
:1051C000FBF70AF96A46042140F69E2001F09EFC96
:1051D00001F064F908BD00003EB5044602208DF8D8
:1051E0000000CA208DF80100E3208DF8020009209C
:1051F0008DF803006A460421682001F087FCA32093
:105200008DF80000610609D5C0218DF80110C82174
:105210008DF80210C2218DF8031005E08DF8010011
:105220008DF802008DF8030014F4C07F09D0C4216A
:105230008DF80410CC218DF80510C6218DF80610CC
:1052400005E08DF804008DF805008DF806008DF856
:1052500008008DF807008DF809006A460A2140F61B
:10526000A72001F053FCA0074FF0D80503D0202061
:105270008DF8000001E08DF800506A46012140F6EB
:10528000B62001F043FCA00601D5012000E000207B
:1052900000F08EF814F4C07F1ED0E0050AD5B220CD
:1052A0008DF800008B208DF80100B6208DF80200EB
:1052B0009B2009E0B0208DF8000080208DF80100CF
:1052C000B4208DF8020090208DF803006A46042176
:1052D00040F6A22001F01AFCE1074FF40B6022D047
:1052E000F8218DF800106A46012101F00FFCFA2127
:1052F000072000F097FA072000F062FA012000F082
:105300007FFA642000F022FB4FF4FA7000F02EFBCD
:10531000C821254800F01CFA282000F031FA0A20A4
:1053200000F03EFA05E08DF800506A46012101F0D8
:10533000EDFBA00703D5D9208DF8000001E08DF822
:1053400000506A46012140F23D7001F0DFFB60072A
:1053500001D5012000E0002000F048F8E00601D56A
:10536000012000E00020FFF719FF104D44F0080075
:10537000688101F093F80020A873600601D506202B
:10538000A87314F4C07F02D0A87B801DA87314F00A
:10539000140F02D0A87B1030A873A00702D0A87BFE
:1053A000001DA87300203EBD09E3CA02AC06002020
:1053B0000EB54FF4976310B106A107C901E008A22A
:1053C00007CA8DE807006A460921184601F09EFBCE
:1053D0000EBD0000B8AAB38DB4980D355D00000075
:1053E000B8AAAAAAB088C3C5C700000008B560B1B2
:1053F000C0208DF80000C2208DF80100C4208DF877
:105400000200C6208DF8030004E08B2204216846C8
:10541000FAF7E2FF6A46042140F6982001F076FB95
:1054200001F03CF808BD0000C8234FF48062024937
:1054300040F6F63000F05CBF608A00082DE9FF41BD
:10544000044603A800F00AFEBDF80C00410CC3039B
:105450002F48008900F0030254F82250420700D57B
:105460006D42C0F3C102860654F8222000D5524294
:10547000C0F38116C00554F8264000D56442A5FB50
:105480000367E81700FB037005FB0100850045EA90
:105490009670A2FB0367D51705FB037502FB01524B
:1054A000950045EA9672A4FB0367E51705FB0373B5
:1054B00004FB01318B0043EA9671030E8DF8003036
:1054C000030C8DF80130030A8DF802308DF80300CB
:1054D000100E8DF80400100C8DF80500100A8DF8E0
:1054E0000600080E8DF80800080C8DF80900080A5F
:1054F0008DF80A008DF807208DF80B106A460C21F4
:105500004FF4257001F002FB04B0BDE8F08100000B
:10551000AC06002030B5044613A285B007CA8DE85A
:1055200007004FF0FF35C82C16D8C820B0FBF4F1A7
:10553000491E080A8DF80C008DF80D1003AA0221EF
:1055400040F2162001F0E2FA30B96A460C2140F62A
:10555000C12001F0DBFA10B1284605B030BD054886
:1055600084810020F9E70000FEF2ABC4AAF1DFDF7E
:10557000BBAFDFDFAC060020F8B53049098901F088
:10558000030250F822404A0700D56442C1F3C10229
:105590008B0650F8222000D55242C1F3811350F8F7
:1055A0002330C80500D55B42254984FB01408500B6
:1055B00045EA947082FB0142A40F44EA820483FB13
:1055C0000121950F45EA8105010E8DF80010010CAF
:1055D0008DF80110010A8DF802108DF803006A465B
:1055E00004214FF4747001F091FA4FF0FF3688B93E
:1055F000200E8DF80000200C8DF80100200A8DF897
:1056000002008DF803406A4604214FF4757001F0E2
:105610007DFA08B13046F8BD280E8DF80000280C40
:105620008DF80100280A8DF802008DF803506A46B3
:1056300004214FF4767001F069FAF8BDAC06002041
:1056400009E3CA022DE9FF4104463CA004F003032C
:10565000006802903AA0006803903AA006683AA059
:10566000056802A8C15C8DF80010C4F3C101425C5A
:105670008DF80120C4F38112805C8DF8020003A82C
:10568000C35C8DF80430415C8DF80510805C8DF8AA
:1056900006006A46032140F2264001F037FA4FF037
:1056A000FF37E0BB01AA032140F22A4001F02EFAA5
:1056B000A8BBCDE9006560070BD59DF8000040F060
:1056C00001008DF800009DF8040040F001008DF805
:1056D0000400A0060BD59DF8010040F001008DF8F4
:1056E00001009DF8050040F001008DF80500E0057F
:1056F0000BD59DF8020040F001008DF802009DF8E6
:10570000060040F001008DF806006A4603214FF4C0
:10571000886001F0FBF910B901AA032100E004E060
:1057200040F2314001F0F2F918B1384604B0BDE85A
:10573000F081064804810020F8E700004CCD6C00A1
:105740000CC92C003656760026466600AC060020B2
:105750004FF47A7290FBF2F008B54843010E8DF8D1
:105760000010010C8DF80110010A8DF802108DF85F
:1057700003006A4604214FF4AE7001F0C7F908BD7A
:105780000521B0FBF1F008B5010A8DF800108DF885
:1057900001006A4602214FF4AD7001F0B7F908BD6F
:1057A0000521B0FBF1F008B5010A8DF800108DF865
:1057B00001006A4602214FF4AC7001F0A7F908BD60
:1057C00008B500218DF80010C10702D030218DF8F6
:1057D0000010810705D59DF8001041F00C018DF8EF
:1057E0000010400705D59DF8000040F003008DF83B
:1057F00000006A4601214FF4A47001F087F908BD4A
:1058000008B560B1042800D90420401E8DF80000BE
:105810006A46012140F24F1001F078F908BD0120DD
:10582000F3E700002DE9FC41054640074FF0FF3645
:105830007CD0B1F5C86F79D8084602F0EBFE3E493E
:1058400002F0D2FD074601A800F0EAFB9DF8040033
:10585000022806D004280DD008282ED0102865D1A3
:1058600034E00E21384603F094F802F09BFE84B237
:10587000324907E00D21384603F08BF802F092FE22
:105880002F4984B2384602F0D9FE02F08BFE210A7D
:105890008DF8001080B28DF80140010A8DF80210D9
:1058A0008DF80300E8076C4620D0224602214FF411
:1058B000EA7001F02BF9C8BB11E00C21384603F067
:1058C00068F802F06FFE84B21E49DBE70B21384610
:1058D00003F05FF802F066FE84B21B49D2E7A21C17
:1058E00002214FF4927001F011F9F8B9A8070DD513
:1058F0006A4602214FF4EC7001F008F9B0B9A21C1D
:1059000002214FF4947001F001F978B9680710D5BD
:105910006A4602214FF4EE7001F0F8F830B9A21C8B
:1059200002214FF4967001F0F1F810B13046BDE855
:10593000FC810020FBE700000000484300004046D7
:105940000000C045000040450000C0440521B0FBF8
:10595000F1F008B5010A8DF800108DF801006A46D3
:1059600002214FF4EF7001F0D1F808BD0521B0FB22
:10597000F1F008B5010A8DF800108DF801006A46B3
:1059800002214FF4ED7001F0C1F808BD09490A7811
:10599000C1B23AB1084A13685B06FCD5064A121D2B
:1059A00011607047054A13685B06FCD5034A121D57
:1059B000F6E70000010000200038014000480040E8
:1059C0002DE9FE430646264801AB042240680D211E
:1059D000007800F03FFA10B10720BDE8FE839DF883
:1059E00004101C2000EAD1029DF80710DFF8749023
:1059F000C1F301131A438DF800209DF80520C1F36F
:105A0000810300EAD2021A438DF801209DF8062096
:105A100001F0030100EAD20008430024124F8DF880
:105A20000200A0466D46285D10B146F824900AE0B9
:105A300046F824800DE000BF56F82400394602F0F5
:105A4000FDFD46F82400285D401E10F0FF0028559B
:105A5000F2D1641CE4B2032CE5D30020BDE70000C2
:105A6000100100207B14AE3E1D5A843F2DE9FE4FED
:105A700005460120C14E8DF800004FF000088DF85A
:105A8000018030680C461746817C70686B460222A4
:105A9000007800F017FA4FF0FF3A00287AD1C820BA
:105AA000FFF748FB8DF8008030686B460122C17B10
:105AB0007068007800F006FA0028EFD130686B4675
:105AC000012241797068007800F0FCF90028E5D1E6
:105AD00030686B460122817C7068007800F0F2F932
